:020000040002F8
:10600000E05F0020C1630200C9630200CB630200AD
:10601000CD630200CF630200D163020000000000E4
:10602000000000000000000000000000D363020038
:10603000D563020000000000D7630200D9630200AC
:10604000C1690200DB630200856D0200B96A0200CB
:10605000DB630200DB63020015660200DB63020003
:10606000DB630200DB630200DB630200DB63020030
:10607000DB630200DB630200DB630200DB63020020
:10608000DB630200156A0200DB630200DB630200CF
:10609000DB630200DB630200CD6A0200DB63020007
:1060A000DB630200DB630200DB630200DB630200F0
:1060B000DB630200DB630200000000000000000060
:1060C000DB630200DB630200DB630200DB630200D0
:1060D000DB630200DB630200DB6302000000000000
:1060E00000000000000000000000000000000000B0
:1060F00000000000000000000000000000000000A0
:10610000000000000000000000000000000000008F
:10611000000000000000000000000000000000007F
:10612000000000000000000000000000000000006F
:10613000000000000000000000000000000000005F
:10614000000000000000000000000000000000004F
:10615000000000000000000000000000000000003F
:10616000000000000000000000000000000000002F
:10617000000000000000000000000000000000001F
:10618000000000000000000000000000000000000F
:1061900000000000000000000000000000000000FF
:1061A00000000000000000000000000000000000EF
:1061B00000000000000000000000000000000000DF
:1061C00000000000000000000000000000000000CF
:1061D00000000000000000000000000000000000BF
:1061E00000000000000000000000000000000000AF
:1061F000000000000000000000000000000000009F
:10620000DFF80CD000F076F9004800471D9B020033
:10621000E05F002030B450E8012F93B2C4892344DA
:106220008489A34228BF1B1B0489A34202BFBFF37A
:106230002F8F002007E0C3EA020340E80134002C5E
:10624000E9D14FF001000A6030BC704750E8012FDF
:10625000C2EA024240E801210029F7D1704730B478
:1062600050E8022F1FFAA2F3C488A34202BFBFF373
:106270002F8F00200DE0C48923448489A34228BFC6
:106280001B1BC2EA034340E80234002CE8D14FF064
:1062900001000A6030BC704750E8022FC2EA224277
:1062A00040E802210029F7D17047034653E8022F46
:1062B000D988B2EB324F4FF0000017BF92B241EADB
:1062C000014142EA014104E05A68B2EB324F08BF93
:1062D000012043E80212002AE8D1704730B4044696
:1062E00054E8000F0D4644E80053002BF8D1156028
:1062F00030BC704730B4044654E8000F40EA010552
:1063000044E80053002BF7D1156030BC704730B41F
:10631000044654E8000F00EA010544E80053002B4E
:10632000F7D1156030BC704730B4044654E8000F14
:1063300080EA010544E80053002BF7D1156030BC1A
:10634000704730B4044654E8000F00EB010544E800
:106350000053002BF7D1156030BC704730B40446B1
:1063600054E8000FA0EB010544E80053002BF7D1DF
:10637000156030BC704770B404464FF0000054E81C
:10638000006F0D68AE4207BF44E80023012044E8D7
:1063900000630E60002B1CBF0020F0E770BC70474C
:1063A00030B4044654E8000F88422CBF451A054615
:1063B00044E80053002BF5D1156030BC7047000055
:1063C0000648804706480047FEE7FEE7FEE7FEE78F
:1063D000FEE7FEE7FEE7FEE7FEE7FEE7E56A02000E
:1063E000016202002DE9F05F0546002092469B46BF
:1063F00088460646814640241BE0284641464746DB
:10640000224600F067F853465A46C01A914110D30D
:1064100011461846224600F016F82D1A67EB0108BF
:106420004F4622460120002100F00DF817EB00092D
:106430004E41201EA4F10104DFDC484631462A46C5
:106440004346BDE8F09F202A04DB203A00FA02F11F
:10645000002070479140C2F1200320FA03F3194352
:1064600090407047004870470CE8020040EA010382
:106470009B0703D009E008C9121F08C0042AFAD2FA
:1064800003E011F8013B00F8013B521EF9D27047BE
:10649000D2B201E000F8012B491EFBD27047002266
:1064A000F6E710B513460A4604461946FFF7F0FF13
:1064B000204610BD421C10F8011B0029FBD1801A98
:1064C0007047034611F8012B00F8012B002AF9D17F
:1064D00018467047202A04DB203A21FA02F00021F6
:1064E000704721FA02F3D040C2F1200291400843E4
:1064F00019467047064C074D06E0E06840F001037E
:1065000094E8070098471034AC42F6D3FFF77CFEBE
:1065100080EF0200A0EF020070B58C1810F8015B4C
:1065200015F0070301D110F8013B2A1106D110F82C
:10653000012B03E010F8016B01F8016B5B1EF9D130
:106540002B0705D40023521E0DD401F8013BFAE7B6
:1065500010F8013BCB1A921C03E013F8015B01F821
:10656000015B521EF9D5A142D8D3002070BD0000B6
:1065700077B581B00C4615460020144908700120FB
:10658000034601AA0C210090114804F037F9064691
:1065900000BF0E4800780028FBD016B1002004B0E0
:1065A00070BD0020094908702B4622460C2108487E
:1065B00004F012F9064600BF044800780028FBD01A
:1065C0000EB10020EBE70120E9E70000112B0020CD
:1065D00010E402007CB504460D468DF804408DF8A9
:1065E0000550002009490870022301AA0C210090DF
:1065F000074804F003F9064600BF04480078002865
:10660000FBD00EB100207CBD0120FCE7112B002047
:1066100010E402002DE9F04F89B000270020089017
:106620004FF4807007900126002412E0079804F0D0
:1066300005FB40B100BF7B480068304018B10798A7
:1066400004F0EEFA374376000798001D80B20790F9
:10665000641C082CEAD34FF4BE7004F0EFFA50B17A
:106660004FF4BE7004F0DCFA47F0004708AA01219D
:10667000002004F0BBFAF8B200B3012600241BE0AE
:1066800006EA0700B0B100BF674850F82400C0F325
:106690000420804600BF644850F82400C0F3014045
:1066A0008146204602F0A8F8054615B14946404605
:1066B000A84700BF7600641C082CE1D307F0004017
:1066C00000287DD0002006900590002505E04FF0C1
:1066D000FF3004A941F825006D1C002DF7D000BF44
:1066E0000020069000245FE05048005D039003986E
:1066F00020F0C0094D480057401C002853D004A981
:10670000484603F0AAFE00284DD003984FEA901A9D
:10671000484602F0B9F8804602F06EF802900298FE
:1067200010B9BAF1030F3DD1BAF1030F03D105A996
:10673000484603F09DFE00BF00BF4FF0A041084651
:1067400000F5E06151F82910C1F3014800BF08A924
:10675000484603F082FE8346BBF1000F02D0B8F139
:10676000020F05D0BBF1000F1BD1B8F1030F18D1F8
:10677000BAF1030F0FD1B8F1020F01D1032000E0ED
:10678000022001904846019904F0C7F90698401C80
:10679000C0B2069000BF029818B151464846029A0E
:1067A000904700BF00BF641C042C9DD3069888B39B
:1067B0004FF0010803AA0121002004F017FA00E0BD
:1067C0002DE000250BE003A850F8250008A951F89A
:1067D0002510884202D04FF0000802E06D1C002D09
:1067E000F1D000BFB8F1000F02D00020069010E0F9
:1067F00000250CE003A850F8250008A941F8250061
:1068000005A850F8250004A941F825006D1C002DAD
:10681000F0D000BF069800287FF462AF00BF09B037
:10682000BDE8F08F0463004010650040383600205A
:106830002DE9FC4104460D4616460027062269460E
:106840003B2003F053FBE8B1062269463B2003F0EE
:106850004DFB9DF801009DF8001040EA012000B2B8
:1068600020809DF803009DF8021040EA012000B24C
:1068700028809DF805009DF8041040EA012000B230
:10688000308001273846BDE8FC812DE9FC410446F3
:106890000D461646002706226946432003F026FBD4
:1068A000C0B19DF801009DF8001040EA012000B23F
:1068B00020809DF803009DF8021040EA012000B2FC
:1068C00028809DF805009DF8041040EA012000B2E0
:1068D000308001273846BDE8FC81F0B585B004461C
:1068E0000D461646012202A91020FFF741FE0122A3
:1068F00001A91120FFF73CFE012269461220FFF793
:1069000037FE0027062203A90320FFF731FEA0B3BC
:10691000062203A90320FFF72BFE9DF80C009DF82B
:106920000D1040EA01209DF808108039012202EB89
:106930002121484300B220809DF80E009DF80F10E1
:1069400040EA01209DF80410803902EB21214843E0
:1069500000B228809DF810009DF8111040EA012037
:106960009DF80010803902EB2121484300B23080AD
:10697000012711210A20FFF72DFE384605B0F0BD92
:1069800000BF00BF00BFBFF34F8F00BF00BF00BFFD
:106990000948006800F4E06008490843001D064902
:1069A000086000BF00BF00BFBFF34F8F00BF00BF34
:1069B00000BF00BF00BFFDE70CED00E00000FA05DE
:1069C00010B54FF4807003F072FE80B14FF4807008
:1069D00003F076FE012003F07DFE0D48407930B9CA
:1069E00001200B49487108460168002088474FF490
:1069F000827003F05CFE50B14FF4827003F060FED1
:106A0000022003F067FE024801680120884710BD9C
:106A1000402B002010B5034A1068034A11688847CC
:106A200010BD0000BC2B0020B82B002010B500F0DA
:106A3000B1F910BD2DE9F047074688461646C24613
:106A400007EB47011B4800EBC109D9F8140020B13E
:106A5000012811D0022826D11EE0484600F0D2F9C4
:106A60000546B54201D2002405E03446324651467F
:106A7000484600F00EFA18E0484600F0C3F9054613
:106A8000B54201D2284600E030460446224651462F
:106A9000484600F0FEF908E032465146484600F00C
:106AA000BFF9044601E0002400BF00BF2046BDE856
:106AB000F08700006C3D002010B50249024806F046
:106AC000F9FF10BD943600200030004010B504F0EE
:106AD000ADFF10BD01480249086070470090D00327
:106AE0002C2C002010B502F051FB28B195480088ED
:106AF000C0F304209449086002F09CFB10B1934855
:106B00009349486702F0BEFB30B18E48E038006818
:106B1000C0F342308F49086002F0DEFB28B18E4896
:106B2000006820F080708C49086002F0EDFB48B1ED
:106B300000208A4908604FF08041C1F81001854962
:106B4000091F086002F00AFC18B103208149643172
:106B5000086002F01BFC68B1052081490860012033
:106B60007F497831086000207D49083108603F2066
:106B7000091F086002F022FC002855D07148E0305F
:106B80000068784908606F48E4300068091D0860B3
:106B90006C48E8300068091D08606A48EC300068FD
:106BA000091D08606748F0300068091D08606548E5
:106BB000F4300068091D08606248F83000686949CF
:106BC000203108605F48FC300068091D0860664895
:106BD0000068091D08606448001D0068091D086000
:106BE000614808300068091D08605F480C30006883
:106BF000091D08605C48103000685A49403108603F
:106C0000594814300068091D08605748183000685A
:106C1000091D086054481C300068091D086052486E
:106C200020300068091D086002F086FA30B145483E
:106C3000CC38006800F04F004C49086002F0D0FAF0
:106C400040B14B48006800F0010018B16FF001003E
:106C50004749086002F006FB28B14648006840F446
:106C60008060444908603C487438006840F4700013
:106C700039497439086000BF00BF00BFBFF34F8FB0
:106C800000BF00BF00BF00BF00BF00BFBFF36F8FDA
:106C900000BF00BF00BF3848006800F00100F0B13D
:106CA00001203649086000BF354800680028FBD045
:106CB0003148006820F001004FF01021C1F80C02AB
:106CC00000BF2F4800680028FBD000202B49086037
:106CD00000BF2B4800680028FBD0FFF751FE264874
:106CE0000C38006800F0004028B9234808380068D4
:106CF00000F0004018B301202049086000BF204880
:106D000000680028FBD015201B490C39086000BF23
:106D10001B4800680028FBD015211748083801607F
:106D200000BF174800680028FBD000201349086006
:106D300000BF134800680028FBD0FFF721FEFFF7D3
:106D4000C9FE10BD24030010403501400DF0ADBA5E
:106D500000C007403C050040FCED00E00C01004095
:106D60001056004020C5004024040010E40E0040EE
:106D7000000400403C1700400C12001004E50140E4
:106D800000E4014010B502490868804710BD0000CA
:106D9000482B002010B5124C02202061606111A028
:106DA000A0611349E1614FF4007121620021A162E9
:106DB0006162E1620BA0A0640E49E16410212165CB
:106DC0000021A1656165E1650BA1E01DFFF779FB7D
:106DD0000AA12046FFF775FB2020A07110BD00001E
:106DE000543D00205465726D696E616C00000000B6
:106DF000CC3D0020CC3F002052545400534547471F
:106E00004552000010B501460A69CB689A4204D881
:106E10008C68641EE41AA01801E0D41A601E10BD2C
:106E20002DE9F0470446894617464FF0000AE56809
:106E300000BFD4F81080A84503D9A8EB0500461E72
:106E400004E0A5EB0800401CA1680E1AA068401BD6
:106E5000B04201D9304601E0A068401B0646BE4260
:106E600001D2304600E0384606466168481932468D
:106E70004946FFF7FBFAB244B144BF1B3544A06852
:106E8000A84200D10025E560002FD2D15046BDE8D0
:106E9000F0872DE9F047044689461546E668A06864
:106EA000871BAF4208D9616888192A464946FFF70F
:106EB000DDFA7019E06010E0B84661688819424652
:106EC0004946FFF7D3FAA5EB070809EB070142464D
:106ED0006068FFF7CBFAC4F80C80BDE8F08702E0E9
:106EE00008C8121F08C1002AFAD170477047002055
:106EF00001E001C1121F002AFBD170470146202981
:106F000008DA012088400A4A104008B10120704781
:106F10000020FCE7402909DAA1F12000012202FA51
:106F200000F008B10120F2E70020F0E70120EEE7D1
:106F3000FC06FFBD00BFEFF31081084672B6704734
:106F40000246002104E0505C08B101207047491C52
:106F50000629F8D30020F9E770B504460D4604F27F
:106F60002740FFF7EDFF0646012D06D0022D0DD07C
:106F7000032D11D0042D19D113E0A07928B194F874
:106F8000240010B90EB1012070BD00BFE07910B12E
:106F90000EB10220F8E700BF207A08B10320F3E722
:106FA00000BF607A08B10420EEE700BF0020EBE7E5
:106FB0000146481C052290FBF2F302FB1300C0B20D
:106FC0007047014691F82420012A01D1EE2000E00B
:106FD0001F20704730B5ABB0AC216846FFF75FFAB1
:106FE00002208DF8000000208DF8020006208DF8A8
:106FF00003000121ADF84C100F49149101218DF8C7
:107000007C104FF4A0712291002123910B4829900C
:1070100069460B4800F082FB044600BF254625B1B7
:1070200000BF284600F0F2F800BF00BF012104486D
:1070300000F071FB2BB030BD0C2B002055C40200BA
:10704000502C002070B50321064800F009FC0446CE
:1070500000BF254625B100BF284600F0D7F800BF85
:1070600000BF70BD502C002010B50446022000F077
:10707000C5FF10BD10B5002407E00749096811F8E5
:107080003400012104F062FE641C0448007884424C
:10709000F3D3002010BD0000602B0020642B0020E3
:1070A0002DE9F84306460D4617460A2F02D207205F
:1070B000BDE8F88304F07AFF38B904F021FF0446F4
:1070C00000BF204600B1F3E700BF1848066018482B
:1070D0000570184807601848002101604160816010
:1070E000C160164A1160516015E006EBC5081448EE
:1070F0000068009098F802008DF8010098F80000F0
:10710000104A694604F078FE044600BF204600B1EC
:10711000CEE700BF00BF281EA5F10101CDB2E4D12A
:10712000094A0021094800F0A7F8C1E7602B0020B8
:10713000642B0020682B0020E8360020702B0020F4
:1071400020E502005D970200A98D02001CE5020007
:1071500072B600BF04F0C6F800BF00BF03F06AFEBD
:107160000028FBD100BF00BF1D491E4A891AC9086B
:10717000012242EA01401CA103F0E8FF00BF1D48C4
:10718000006800F0010000B100BE00BF1449154ABC
:10719000891AC908022242EA014017A103F0D6FF6A
:1071A00000BF00BF00BF00BF00BFBFF34F8F00BFD5
:1071B00000BF00BF0F48E438006800F4E0601249E7
:1071C0000843001D0B49E439086000BF00BF00BF41
:1071D000BFF34F8F00BF00BF00BF00BF00BFFDE780
:1071E00010F00200B0EF0200466174616C2065721D
:1071F000726F7200F0ED00E053797374656D207268
:1072000065736574000000000000FA053EB5044691
:10721000002000900190029002946A46002144F2FE
:107220000100FFF795FF3EBD70B504460D462046B0
:1072300002F088F928B12946204602F077F90020AB
:1072400070BD0520FCE770B504460D46204602F0EF
:1072500079F9A188884205D82946204602F080F9AC
:10726000002070BD0420FCE710B5024801F01EFEAE
:1072700010BD0000782B002010B503460C460AB95B
:10728000072010BD19684A61012C01D1012000E0DE
:10729000002008610020F4E738B51348006800902A
:1072A0000823582211491248006802F0A0FF044642
:1072B0000CB1204638BD0F4A69460F4801F0FCFD6D
:1072C00004460CB12046F5E701210B4801F092FE7F
:1072D00001230A4A1946084801F0BAFD012008496D
:1072E00008702046E6E7000070E602000437002040
:1072F00060E60200D1CE0200782B0020FFFF7F0065
:10730000842B00202DE9F04106460D4617463446F1
:10731000207F10B10020BDE8F081A76102F000FAE3
:10732000401941F10001C4E90201206900B1256161
:107330002146002006F0BAFAEDE770B5044625466E
:10734000002028772946012006F0B0FA70BD000021
:107350002DE9F041054629461448FFF774FF06461B
:1073600006BB134C002720781249085C20B1201D71
:1073700005F060F8074608E020780E49085C20B95F
:1073800004F10C0004F0E4FF074600BF57B90A49B6
:107390000648FFF749FF28B901220749044803F0CE
:1073A00043FA06463046BDE8F08100007C370020F5
:1073B0009C2B00203C2B0020B42B002010B5044651
:1073C000204605F081FE10BD70B5044625460E48E6
:1073D0008068B0B1ADB9FFF7ADFD06460A48006858
:1073E0000A490860084840684FF0E021C1F80401EC
:1073F0000020054988601EB900BF62B600BF00BF0B
:1074000000BF00BF70BD0000F836002000E100E0C2
:10741000F8B505460C4617462088001DB84201D92C
:107420000C20F8BD684679DF064600BF304600B143
:10743000F7E700BF0320218868542088401C208083
:107440001920218868542088401C208020884119F8
:10745000BDF8000006F006FE2188084420800020C8
:10746000DFE7000070B50022A42107480068FFF79D
:1074700049FF044600BF254625B100BF2846FFF757
:10748000C5FE00BF00BF70BDE0E30200002114E0B4
:107490000C48D0F81024012308E000BFD068007920
:1074A000884201D1002303E0D0680268002AF4D1A9
:1074B00000BF0BB108467047491C0A29E8DB4FF0B2
:1074C000FF30F8E7303900202DE9F04104460F463F
:1074D000154615B90E20BDE8F0810020286000BFD8
:1074E0000CB90E20F7E700BF00BF206808B90E20D6
:1074F000F1E700BF00BFE088C11700EB9171891070
:10750000A0EB810109B10720E5E700BF384600F094
:10751000AFFAC6B2142E01D10520DCE72079B042C3
:1075200001DC0420D7E7E188206806FB0100286021
:107530000020D0E72DE9FC41054688461646002488
:1075400037880020308095F82D0058B13A463146F2
:10755000404600F0A5FA044600BF204608B1BDE849
:10756000FC8100BFA87850B13A4631464046FFF74B
:107570004FFF044600BF204600B1F0E700BFE878A7
:1075800060B1E97848B23B463246414602F000F825
:10759000044600BF204600B1E1E700BF686868B15B
:1075A000696891F900003B463246414606F0DEFC30
:1075B000044600BF204600B1D1E700BF288900285B
:1075C0000EDD43460622022105F10800CDE90067E1
:1075D00006F018FE044600BF204600B1BFE700BF1A
:1075E000288A00280EDD43460722032105F11000FA
:1075F000CDE9006706F006FE044600BF204600B154
:10760000ADE700BF288B00280EDD4346152214216C
:1076100005F11800CDE9006706F0F4FD044600BF4F
:10762000204600B19BE700BF286A58B13B4632466E
:107630004146286A01F0B0FA044600BF204600B176
:107640008DE700BF686A58B13B4632464146686ADA
:1076500002F060FB044600BF204600B17FE700BF98
:1076600095F82C0000280BDD3B4632464146284663
:1076700005F02AFE044600BF204600B16FE700BFB8
:10768000287858B13B4632464146284602F04BFD29
:10769000044600BF204600B161E700BF20465EE718
:1076A000F8B504460E461546002000902B466A4663
:1076B0003146204600F008F807460FB90020F8BD13
:1076C000BDF800002044FAE7F0B504460D4604B1C9
:1076D0000AB90020F0BD002103E0605C401C0844B2
:1076E00081B21088884203DC481C205C984201D09B
:1076F000A942F2DBA94201DB0020EBE7881C86B23D
:10770000605C401E87B2F019A84201DD0020E1E76D
:1077100016803846DEE780F83010704770B50446B2
:107720000D4605B10CB90E2070BD05F1780001F0D1
:10773000D4F908B90720F7E70020A0702C2205F142
:107740007801201DFEF792FE002084F83000D5F865
:10775000A4006063D5F8A800A0634FF6FF70A4F8FA
:10776000240404F58260C4F82004002140F22C4077
:10777000C4F82614A4F82A140155207810B9FF2063
:1077800084F8540004F15500C4F810042046FFF7B3
:1077900018FC40F21441085304F2144204F155015C
:1077A0002846FFF7C7FE064600BF304600B1BBE7DC
:1077B00000BF04F231204FF4836108512046FFF7E7
:1077C00000FCA4F81C044FF48360015904F21C422D
:1077D00005F13C00FFF7AEFE064600BF304600B1A3
:1077E000A2E700BF012151200155208B81B2482022
:1077F0000153012084F83C000021216450200155F0
:107800006169616404F13C02002104F1540072DFFB
:10781000064600BF304600B186E700BF0120207059
:10782000304681E770B504460D462E462088102864
:1078300004D0112807D026280FD109E02146304670
:1078400004F02EFF0AE02146304604F0EEFF05E08A
:107850002146304605F035F900E000BF00BF70BD9D
:1078600070B504460E46207808B9082070BDA67091
:10787000002140F22C40C4F82614A4F82A14015523
:10788000A07910B1A078012809D0E07910B1A078D2
:10789000012804D0E07970B1A07802280BD1606B88
:1078A00030B1012084F82D040820616B884702E084
:1078B000002084F82D0431462046FFF74DFBA070D0
:1078C000606BA0B1A078032802D0A07804280ED164
:1078D000607960B194F82E0448B9002084F830042F
:1078E000012084F82F040720616B884702E0002004
:1078F00084F82F04182104F13C00FEF7D0FD01208C
:1079000084F83C0004F12C0005F0B2F920B194F8A1
:107910002C105120015502E001215120015594F80D
:10792000240060B104F1280005F0A2F920B194F818
:1079300028105220015502E001215220015500215A
:1079400050200155A078052824D2DFE800F01F035D
:107950000A11180004F13C01204605F047FD0546D8
:1079600019E004F13C01204605F028FD054612E02F
:1079700004F13C01204605F04BFD05460BE004F107
:107980003C01204605F072FD054604E0002084F825
:10799000310000E000BF00BFA07898B104F13C02C4
:1079A00004F15400D4F8201472DF05460DB12846C6
:1079B0005CE794F8301094F8540073DF05460DB17D
:1079C000284653E7606B18B194F83100616B884723
:1079D00000204BE72DE9F041044600BF14B90E200A
:1079E000BDE8F08100BF1C2221461C48FEF73EFD89
:1079F0001B481A490860206860B120687ADF054694
:107A00000DB12846ECE7164821680A68026049680B
:107A1000416005E012487BDF05460DB12846DFE7EF
:107A2000002617E006EB86000E4901EB800700BF39
:107A30004FF6FF70388000BF0B4800EB46107860AF
:107A40000A4A0021381DFFF717FC05460DB1032037
:107A5000C6E7761C002EE5D00020C1E73C350020AB
:107A60002A2B0020283500200835002029E10200BB
:107A700010B50446204600F005F808B1204610BDB8
:107A80001420FCE710B50446142C01DB002010BDC7
:107A90002146024802F006FCF9E700005C350020B0
:107AA0002DE9FC4105460C46174620880930B842AE
:107AB00002D90C20BDE8FC8168466DDF064600BF98
:107AC000304600B1F6E700BF0820218868542088BE
:107AD000401C20801B20218868542088401C208066
:107AE00020882844DDF801100160BDF80510818070
:107AF0002088801D20809DF80000400818B90020D3
:107B00002188685402E00120218868542088401CA4
:107B100020800020CEE70000F8B505460F4600247F
:107B20002888212847D006DC10281AD0112809D02F
:107B3000132872D14FE03B2871D052285CD05628D0
:107B4000F7D17AE04FF6FF70444908804449454A2E
:107B5000891AC908032242EA014043A103F0F6FA58
:107B60007AE03F493F4A891AC908032242EA0140A4
:107B700041A103F0EBFA072000F052FB044600BFDE
:107B8000264626B100BF3046FFF740FB00BF00BFCE
:107B9000A88832490880084601883A4802F020FD4A
:107BA000044600BF264626B100BF3046FFF72EFB35
:107BB00000BF00BF50E000200090A88869468FDF1A
:107BC000044600BF264626B100BF3046FFF71EFB25
:107BD00000BF00BF40E000231A4685211F480088EF
:107BE0007FDF044600BF264626B100BF3046FFF7C0
:107BF0000DFB00BF00BF00BF00231A4619461748FF
:107C00000088B1DF044600BF264626B100BF3046DB
:107C1000FFF7FCFA00BF00BF1EE01CE0FFE7A888EA
:107C2000132176DF044600BF264626B100BF30464A
:107C3000FFF7ECFA00BF00BF0EE0A888132176DF43
:107C4000044600BF264626B100BF3046FFF7DEFAE5
:107C500000BF00BF00E000BF00BFF8BD082B002040
:107C600010F00200B0EF0200446973636F6E6E653E
:107C7000637465642E000000436F6E6E6563746507
:107C8000642E0000442C002070B504460D46208868
:107C9000102806D0112808D012280ED0502810D154
:107CA00007E0204604F05AFC0CE0204604F0A4FD56
:107CB00008E0204604F036FF04E0204604F036FCDD
:107CC00000E000BF00BF70BD2DE9F04104460F4643
:107CD000A6882088102806D0112817D019283DD052
:107CE0001A2848D116E005F0C5F8304605F09EF890
:107CF00020B900BF0420FFF789FA06E0E07B0128E5
:107D000003D031461D4802F0DCFA34E0304605F07D
:107D1000D5F830E0207A0509042D01DB012000E0D0
:107D200000200246314615480C3001F022FC032D9C
:107D300001DB012000E00020024631460F480830F8
:107D400001F017FC022D01DB012000E000200246BB
:107D500031460A48001D01F00CFC0CE0207A48B9BD
:107D6000607AC0F3C0052A46314604480C3001F061
:107D700000FC00BF00BF00BFBDE8F08164350020FB
:107D800070B50446204606F067F9054605F0010087
:107D900070BD38B503F008FE044600BF254625B186
:107DA00000BF2846FFF732FA00BF00BF0020009056
:107DB0006946012003F048FC044600BF254625B172
:107DC00000BF2846FFF722FA00BF00BF684603F055
:107DD0000BFD044600BF254625B100BF2846FFF72E
:107DE00015FA00BF00BF38BD2DE9F04186B004464A
:107DF000884617461D4600BF1CB90E2006B0BDE8D8
:107E0000F08100BF01AA29466069FFF75DFB0646C5
:107E100000BF304600B1F1E700BF4FF6FF7085426A
:107E200001D0019808B90520E8E70198007808B961
:107E30000820E3E73888F42801DD0720DEE700208A
:107E40000290039004900590A088ADF80800CDF84A
:107E50001480049701208DF80A0002A92846AEDF9D
:107E6000CCE7000070B58EB004460E463F4B0FCBFA
:107E700009AD0FC500BF14B90E200EB070BD00BF14
:107E800000BF0EB90E20F8E700BF3068A0612146A0
:107E900009A862DF054600BF284600B1EDE700BF34
:107EA00020788DF836000A20ADF83400A21C0DA908
:107EB0000120A8DF054600BF284600B1DDE700BF6E
:107EC000202101A8FEF7EBFA0C20ADF80400207881
:107ED0008DF80600F420ADF808000120ADF80A0086
:107EE0008DF810009DF8110020F0080008308DF882
:107EF00011009DF8110020F00400001D8DF8110004
:107F000001208DF815008DF81600608804F10C0230
:107F100001A900F0BFFC05460DB12846ADE72021C0
:107F200001A8FEF7BCFA0B20ADF8040020788DF80C
:107F30000600F420ADF808000120ADF80A008DF825
:107F400010009DF8110020F0100010308DF8110085
:107F500001208DF815008DF816008DF81700608847
:107F6000221D01A900F096FC87E700007CE40200D6
:107F700070B504460D4605B104B970BD2E46208883
:107F8000102804D0502807D057280FD109E02146E7
:107F9000304604F01BFB0AE02146304604F0EEFDBB
:107FA00005E02146304604F0F9FC00E000BF00BFC8
:107FB00000BFE2E77CB500240DE00848055D03261C
:107FC000002000903346024601460190284602F008
:107FD00068FD00BF641C042CEFD37CBD34E40200B8
:107FE00010B5044604F0010008B100F04BF804F0AD
:107FF000020008B1FFF7DEFF10BD000010B5024619
:108000000949885C00BF4FF0A0442146D1F80435EF
:10801000012484409C43C1F80845012484401C404D
:10802000C1F80C4500BF10BD30E4020010B5044695
:108030000249085D012102F0BCFD10BD30E40200E0
:1080400010B504460249085D002102F0B2FD10BDE2
:1080500030E4020010B50146094B585C00BF4FF0F8
:10806000A044234600BFD3F80445C44004F00104F3
:108070000CB1012000E00020024682F0010010BD9A
:1080800030E402007CB500240CE00948055D0020C6
:1080900000900346012211460190284602F001FD9E
:1080A00000BF641C042CF0D300F004F87CBD000079
:1080B00030E4020010B5002403E02046FFF7B6FFCD
:1080C000641C042CF9D310BD10B5002403E0204635
:1080D000FFF7B6FF641C042CF9D310BD02464FF025
:1080E000FF30002106E0054B5B5C934201D108465E
:1080F00002E0491C0429F6D300BF704734E40200B3
:108100002DE9F04106460F464FF0000800243046A6
:10811000FFF7E4FF0446042C3ED20FB3012F02D038
:10812000022F38D130E004EB4400214911F80080DF
:1081300004EB44000844407850B11E4A4FF480419B
:108140001D480068FFF7DEF805460DB919480670AE
:1081500004EB4400164908448078184908551AE091
:1081600015480068FFF7E9F81448005D04EB440186
:108170000F4A11448978884205D104EB4400114626
:10818000084490F8028006E004EB440008490844E3
:1081900090F8018000BF00BFB8F1000F06D008487A
:1081A000006818B14046064909688847BDE8F08173
:1081B000D8340020242B002040E40200252B00208E
:1081C000202B002030B503460020042B23D2012AA7
:1081D00007D1012903D103F10E04E4B200E0002429
:1081E000224679B1012902D0022911D104E003EB22
:1081F00043040A4D2A550DE003EB4304074D2C447C
:10820000627007E003EB4304044D2C44A27001E0CC
:10821000072000BF00E0072030BD0000D834002058
:1082200070B5044600250548007800F0010018B13B
:10823000204600F05BF80546284670BD182B00204C
:108240002DE9F04105460F4600241F4805601F48F0
:10825000076005F0020000B3002606E00122114687
:108260003046FFF7AFFF0446761C042E01D2002CE7
:10827000F4D034B940F2333204211548FEF710FF30
:10828000044614B9FEF7F6FE04462CB9114A002143
:108290001148FEF7F1FF044600BF05F0010080B170
:1082A0000120FFF79DFE2CB90C4A00210C48FEF777
:1082B000E3FF04462CB90B4A01210B48FEF7DCFF13
:1082C00004462046BDE8F081182B0020202B00201A
:1082D00044E40200C987020040E40200AD990200B4
:1082E00038E40200697002003CE402002DE9F04726
:1082F000044600260025DA48007820B10020D8493D
:10830000087001F03FFB182C7ED2DFE804F00C1659
:10831000174A7EB2F6F4F3F2F1F0EFEEEDECEBEA91
:10832000E9E8E7E6E5E401F02DFBCE480068FFF759
:1083300004F80646CC4804708DE100BF0020FFF72A
:1083400089FE58B10020FFF771FE022C02D14FF4D4
:10835000E16001E04FF47A60054609E00020FFF794
:108360006FFE022C01D1C82001E04FF4C870054611
:10837000BD4804704FF40040A5FB00104FF47A7321
:10838000CF1840F100015A0000233846FEF72AF8C2
:10839000814600224946B3480068FEF7B3FF06460F
:1083A00059E10020FFF756FE58B10020FFF73EFECE
:1083B000032C02D14FF4487001E04FF47A60054677
:1083C00009E00020FFF73CFE032C01D1C82001E0AA
:1083D0004FF4C8700546A44804704FF40040A5FB54
:1083E00000104FF47A728F1840F100015200002300
:1083F0003846FDF7F7FF8146002249469948006854
:10840000FEF780FF064626E124E10020FFF722FE6A
:1084100058B10020FFF70AFE042C02D14FF47A6015
:1084200001E04FF47A6005460AE00020FFF708FEFD
:10843000042C02D14FF4C87001E04FF4C870054617
:10844000894804704FF40040A5FB00104FF47A7384
:10845000CF1840F100015A0000233846FDF7C2FF53
:108460008146002249467F480068FEF74BFF0646DA
:10847000F1E00020FFF7EEFD50B10020FFF7D6FD40
:10848000052C01D1C82001E04FF47A60054609E0CF
:108490000020FFF7D5FD052C01D1C82001E04FF4E5
:1084A000C8700546704804704FF40040A5FB0020DA
:1084B0004FF47A73D71840F100015A000023384670
:1084C000FDF790FF81460022494666480068FEF7A6
:1084D00019FF0646BFE0B8E0B6E0AAE0A1E098E0E8
:1084E00092E05FE05DE05BE059E057E051E042E0A0
:1084F00033E024E015E00EE0FFE70020FFF77EFD0B
:1085000059480470002240F2666156480068FEF740
:10851000F9FE06469FE00020FFF792FD52480470E6
:1085200099E001204E490870FFF768FD002240F2F3
:1085300066614C480068FEF7E5FE06468BE00120C8
:1085400047490870FFF75AFD00224FF40051454893
:108550000068FEF7D7FE06467DE00120404908701E
:10856000FFF74CFD002240F266613E480068FEF7CE
:10857000C9FE06466FE0012039490870FFF73EFD4D
:1085800000224FF4005137480068FEF7BBFE064654
:1085900061E0FFF799FD344804705CE000BF00BF64
:1085A00000BF00BF31480068FEF7C7FE0646C4F1B1
:1085B000110515B30EBB012D18D9A8B2C821484327
:1085C0004FF4004180FB01104FF47A728F1840F194
:1085D0000001520000233846FDF704FF81460022C7
:1085E000494622480068FEF78DFE06460220FFF746
:1085F00027FD01201E49087005E00220FFF716FD47
:1086000000201B49087026E001F0BCF916480470F0
:1086100021E001F0B7F90020FFF712FD12480470C5
:1086200019E001F0AFF90120FFF70AFD0E480470D0
:1086300011E001F0A7F90020FFF702FD0120FFF78C
:10864000FFFC0948047006E000BFFFF73DFD064847
:10865000047000E000BF00BF3046BDE8F0870000B6
:10866000152B002038E40200142B00203CE402000B
:108670001C2B00202DE9FC4704460D461646A71C7E
:108680004FF001080020019001A8FEF797FE304846
:10869000006828602E4800682D494968411A2C4816
:1086A0008068401CA0EB010915E00121294801F078
:1086B00025FE01F0CFF982465146264801F01EFE04
:1086C0002348006822494968411A21488068401CB3
:1086D000A0EB010900BF4F45E7D8B8F1000F30D03B
:1086E0000021009176B1009921F00301491C00910D
:1086F000009921F00401091D0091009964F389118A
:1087000000910DE0009921F00301891C009100996E
:1087100021F00401091D0091009964F39F5100911B
:108720000B4909680A4A92681140094A0C3202EB67
:108730008100009901600649096839440C3A1160CA
:1087400000BF9DF80400FEF73FFE4046BDE8FC87F1
:10875000303900204C3D002070B504460D460A2DEE
:1087600003D10D212046FFF7F7FFA168481CA06048
:1087700020684554D4E90110884202D3204602F013
:108780008AF870BD0448406803490968884201D1ED
:10879000012070470020FCE730390020024600210C
:1087A00008E0074B1B6803EBC1000378934200D13C
:1087B0007047491C034800788142F2DB0020F7E74C
:1087C000602B0020642B002010B504462078022185
:1087D000FFF796FC10BD00004FF0FF31054A42F84C
:1087E0002010082804DBFF23A0F108015032535465
:1087F00070470000E83500200146024850F821008B
:1088000070470000E83500202DE9F04F03460C4684
:108810004FF0FF390AB1002000E0082084460AB179
:10882000082000E00C208046614624E0154850F8FE
:108830002100401CF0B91D460846274616464FFA4F
:1088400080FBDFF840A00AF1300A0AF805B0DFF833
:1088500034A04AF820704EB94FFA85FBA0F1080AFF
:10886000DFF820E00EF1500E0EF80AB000BF4FFA0C
:1088700081F902E0491C4145D8D300BF4846BDE814
:10888000F08F0000E835002001460148405670474F
:108890001836002070B590B006460C461546A078F4
:1088A00018B901208DF80E0002E0A0788DF80E00B6
:1088B0002088ADF80C0000200290607C02A904F032
:1088C00003FEA07C0DF1090104F0FEFDE07B08B180
:1088D000012000E000209DF80A1060F3C3018DF82C
:1088E0000A10207C08B1012000E000209DF80A1049
:1088F00060F304118DF80A10207B08B1012000E01C
:1089000000209DF80A1060F300018DF80A10207D08
:1089100008B1022000E001209DF80A1060F3420136
:108920008DF80A101C2109A8FDF7B9FD607BC0F382
:10893000001018B9607BC0F34010F8B1002000901F
:10894000E07C0DF1010104F0BFFD00BF9DF80000C7
:1089500020F00F00401C8DF800009DF8000020F072
:10896000F00010308DF8000000BF9DF8020020F0EC
:108970000600801C8DF80200CDF838D0607B8DF8A1
:108980002400A07B8DF82500142104A8FDF787FDA5
:1089900003A8049002A80590A088ADF81C00A06868
:1089A00020B1E088ADF81800A0680890A069002800
:1089B00049D000200190A0690088ADF82C00A06982
:1089C0004088ADF82E00A06940680A9001A80D907B
:1089D000A169087B01A904F077FDA169487B0DF12D
:1089E000050104F071FDA069807A08B1012000E062
:1089F00000209DF8061060F3C3018DF80610A069F1
:108A0000C07A08B1012000E000209DF8061060F354
:108A100004118DF80610A069007A08B1012000E069
:108A200000209DF8061060F300018DF80610A06983
:108A3000807B08B1022000E001209DF8061060F361
:108A400042018DF80610E06908B1E0690C902B46F0
:108A500004AA09A93046AADF10B070BD70B505465A
:108A60000DB9094C01E0084C083409E0204600F03B
:108A700072FF064606B904E028467168884700BFC1
:108A8000F4E700BF70BD0000DC35002010B50446DF
:108A90002CB90120064948700020FFF7DFFF012CA8
:108AA00004D1012002498870FFF7D8FF10BD0000F3
:108AB000D43500202DE9F047024613468C46D3E911
:108AC0000245DCE90267B6EB040877EB050002D348
:108AD0000120BDE8F0870020FBE7014688780128E7
:108AE00005D191F82000012801D100207047886A43
:108AF000042802D0486A042801D10020F6E70120AA
:108B0000F4E733B58BB00546002000900C9878B19F
:108B100000240BE021460CA801F0C4FB28B1009A08
:108B2000501C009001A820F81240641C142CF1D3B2
:108B30002C2269462846FDF799FC0DB030BD014650
:108B40000888062808DB0888B0F5486F06DD088825
:108B50004FF6FF72904201D00720704748880628E0
:108B600008DB4888B0F5486F06DD48884FF6FF728D
:108B7000904201D00720F0E708884FF6FF7290423C
:108B800008D04888904205D008884A88904201DD84
:108B90000720E2E70020E0E72DE9F04107460D4617
:108BA000144698462088801D404502D90C20BDE817
:108BB000F0813846FFF7C3FF064600BF304600B1DC
:108BC000F5E700BF0520218868542088401C2080DC
:108BD0001220218868542088401C20802288511946
:108BE000388805F03FFA21880844208022885119EE
:108BF000788805F037FA2188084420800020D6E7DD
:108C000010B5044600BF2046FEF700FB00BF10BDB4
:108C100030B587B01C216846FDF741FC002000906C
:108C20004FF4804001904FF42030029003208DF8E3
:108C30000C000020ADF80E008DF8100009480590DA
:108C4000094806906846FEF7C5FE044600BF254663
:108C500025B100BF2846FEF7D9FA00BF00BF07B014
:108C600030BD000001C50200018C0200F8B50546C8
:108C70000C46607A88B9207A10B91048476801E03C
:108C80000E4887682A4639466068FEF73BFB064671
:108C900016B1304604F0B8FA0EE000202072074802
:108CA000406948B101208DF80000ADF8025003483A
:108CB00041696846884700BFF8BD00003C35002088
:108CC0002DE9FF4105460C46002002900390ADF8C7
:108CD0000840ADF80A40009001906A4602A9284673
:108CE00090DF0646002E32D0304602F079FF07466C
:108CF00019491A4A891AC908012242EA01403B4629
:108D00002A46174902F038FABDF8000010B9BDF83C
:108D1000020068B1BDF80230BDF800200E490F4FC7
:108D2000C91BC908012747EA01400EA102F024FA35
:108D3000BDF8040058B1BDF804200749074BC91A13
:108D4000C908012343EA0140164902F009FA3046F6
:108D500004B0BDE8F0810000B0EF0200B0EF020007
:108D600010E802005468652072657175657374655A
:108D7000642054582F5258207061636B6574206CC6
:108D8000656E67746820697320746F6F206C6F6EF6
:108D9000672062792025752F2575206F63746574AF
:108DA000732E00005CE802002DE9F04180460024AB
:108DB00014E01248006800EBC405287803F096F828
:108DC00007466878012800D100E00020784080F054
:108DD00001062878314600F023FB641C084800781F
:108DE0008442E6DB0748D0E9001000235940584090
:108DF000014301D004F07AFDBDE8F081602B002032
:108E0000642B0020702B002010B50021034801F0D6
:108E100096FA044684F3100010BD00004C3D00207B
:108E200070B505460C464FF4803000FA04F1284630
:108E300000F0DCFA70BD70B505460C464FF4A0702A
:108E400000EB840086B23146284600F061FB70BD1D
:108E50002DE9F04704460D4616461F464FF4803074
:108E600000FA05F84FF4A07000EB85001FFA80F9B6
:108E700026F07F464146206802F0D0FB414620683C
:108E800002F0C6FB4946206802F0BBFB3246294689
:108E9000206802F0ADFB4146206802F0BCFB1FB128
:108EA0004146206802F0BDFBBDE8F08710B50446DE
:108EB000206802F0A2FB10BD2DE9F04704460D46E4
:108EC000174660792F4941F8207060792E4901EBEF
:108ED000C000007968B108262C492D4A891AC908B2
:108EE000022242EA01402BA102F030F93046BDE8EF
:108EF000F08729882068C0F8081500BF94F904207D
:108F0000AB781046194600280CDA4FEA417C4FEA4C
:108F10001C69DFF8A4C000F00F08A8F104080CF8E1
:108F2000089007E04FEA417C4FEA1C68DFF88CC0EC
:108F30000CF8008000BF00BF94F9040000BF00F0EF
:108F40001F02012191404209920002F1E022C2F881
:108F5000001100BF00BF012061790B4A02EBC10183
:108F600008716079114641F8304000260749084AE7
:108F7000891AC908032242EA014011A102F0E6F869
:108F80003046B4E7B82B0020BC2B0020F8EF0200DD
:108F9000B0EF020052544320696E7374616E6365D2
:108FA00020616C726561647920696E697469616CB5
:108FB000697A65642E00000018ED00E000E400E02E
:108FC0005254433A20696E697469616C697A6564C8
:108FD0002E00000010B5014691F9040000F01F03B7
:108FE00001229A40024B440943F8242000BF10BDDF
:108FF00000E200E070B505460C46224602212846F4
:1090000000F000FA70BD10B504464FF4827120469E
:1090100000F07EFA10BD10B504460021206802F071
:1090200003FB10BD10B504460421206802F0FCFAD1
:1090300010BD2DE9F84F04460D46164699464FF4EB
:10904000803000FA05FB4FF4A07000EB850080B281
:10905000009026F07F465946204600F0C7F9206868
:1090600002F0CBFA0746206800F5A86151F82510F8
:109070008A463A462946206802F0BAFA20680099E2
:1090800002F0BFFA3946504604F08AFB012806D1A7
:10909000102002F047FE2068009902F0B2FA206822
:1090A00002F0ABFA07463946304604F079FB8046B9
:1090B0005946206802F0AFFAB8F1010F0FD1721CC7
:1090C0002946206802F094FA102002F02BFE206856
:1090D00002F093FAB84227D00D20BDE8F88F32464F
:1090E0002946206802F084FA206802F086FA0746D2
:1090F000701E394604F054FB80466FF07F40A0EBB1
:109100000900404501D20D20E7E7B8F1000F0BD16F
:10911000721C2946206802F06BFA206802F06DFA92
:10912000B84201D00D20D8E701225946204600F070
:1091300069F90020D1E7000013480078062820D103
:109140001148001D007800F00F00D0B90E4808301B
:10915000007800F0F000302801D1012070470A4863
:109160000830007800F0F000402801D10120F5E738
:1091700005480830007800F0F000502801D10120A7
:10918000ECE70020EAE70000E00F00F01348007869
:10919000062820D11148001D007800F00F00D0B93A
:1091A0000E480830007800F0F000302801D101208E
:1091B00070470A480830007800F0F000402801D1DC
:1091C0000120F5E705480830007800F0F00050284D
:1091D00001D10120ECE70020EAE70000E00F00F0F9
:1091E00013480078062820D11148001D007800F0AF
:1091F0000F00D0B90E480830007800F0F000302899
:1092000001D1012070470A480830007800F0F000D2
:10921000402801D10120F5E705480830007800F02A
:10922000F000502801D10120ECE70020EAE700001F
:10923000E00F00F00A48007806280ED10848001D0B
:10924000007800F00F0040B905480830007800F0C1
:10925000F000302801D1012070470020FCE7000019
:10926000E00F00F006480068062806D10448001DFB
:109270000068062801D1012070470020FCE70000AB
:109280003001001013480078062820D11148001D35
:10929000007800F00F00D0B90E480830007800F0D8
:1092A000F000302801D1012070470A4808300078CA
:1092B00000F0F000402801D10120F5E70548083012
:1092C000007800F0F000502801D10120ECE70020E8
:1092D000EAE70000E00F00F00A48007806280ED107
:1092E0000848001D007800F00F0040B9054808301C
:1092F000007800F0F000302801D1012070470020F4
:10930000FCE70000E00F00F013480078062820D1A9
:109310001148001D007800F00F00D0B90E48083049
:10932000007800F0F000302801D1012070470A4891
:109330000830007800F0F000402801D10120F5E766
:1093400005480830007800F0F000502801D10120D5
:10935000ECE70020EAE70000E00F00F00A480078A0
:1093600006280ED10848001D007800F00F0040B913
:1093700005480830007800F0F000302801D10120C5
:1093800070470020FCE70000E00F00F00A4800787A
:1093900006280ED10848001D007800F00F0040B9E3
:1093A00005480830007800F0F000302801D1012095
:1093B00070470020FCE70000E00F00F00A4800784A
:1093C00006280ED10848001D007800F00F0040B9B3
:1093D00005480830007800F0F000502801D1012045
:1093E00070470020FCE70000E00F00F070B5044675
:1093F0000D462946206802F00BF92946206802F044
:109400000DF970BD70B504460E461546314620680C
:1094100002F001F91DB13146206802F002F970BD79
:10942000F8B505460C46284604F0E2F805286AD24D
:10943000DFE800F003212A393F00DCB10121284692
:1094400004F0E6F8002000906846FDF7B7FF2A46D2
:109450000126002730463946FCF7F5FF2B4AD2E9B2
:10946000003218431143294A03C29DF80000FDF75A
:10947000ABFF00BF47E00CB1022000E00020014636
:10948000284604F0C5F83EE044B10321284604F024
:10949000BFF80121284604F0A6FE03E0012128467A
:1094A00004F0B6F82FE01CB90421284604F0B0F807
:1094B00029E024B10321284604F0AAF822E0002183
:1094C000284604F0A5F80021284604F08CFE002070
:1094D00000906846FDF772FF2A46012600273046B5
:1094E0003946FCF7B0FF0A46C143D043074B0CCBCB
:1094F00011401840054AC2E900109DF80000FDF730
:1095000063FF00BF00BF00BFF8BD0000702B00204C
:1095100070B505460C462868015929B121462868CE
:1095200002F06FF8012070BD0020FCE770B5044622
:109530000D462A460021204600F009F8A068401C8C
:10954000A06070BD01468A68C868801A704710B56F
:1095500083680B44848823400468E35C137010BD67
:10956000C26883881A4003689954C268521CC2605A
:10957000704770B505460E46144624B1314628465C
:1095800000F09FFE03E03146284600F07CFE70BDEF
:1095900030B504461088C01C984201D90C2030BD5B
:1095A0000220158848551088401C1080012015881D
:1095B00048551088401C108015884C551088401C58
:1095C00010800020EBE770B504460D4640F21442CF
:1095D000115B0122D4F81004FEF762F8064606B1CA
:1095E000357004F13C0204F5826104F1540072DF2D
:1095F00070BD00003EB500BF9DF8000020F00F00D8
:10960000401C00909DF8000020F0F0001030009009
:1096100000BF072214A168467CDF044600BF254630
:1096200025B100BF2846FDF7F1FD00BF00BF0020B7
:10963000019002900D20ADF80400ADF80600002066
:10964000ADF808004FF4FA70ADF80A0001A87ADF0F
:10965000044600BF254625B100BF2846FDF7D6FDCC
:1096600000BF00BF3EBD0000424C457465737400EE
:1096700070B505460C4660880D490988884215D1A9
:10968000208840F67721884210D1A088C01E094961
:1096900008800949094A891AC908032242EA014097
:1096A00004490B880A8806A101F066FD70BD000020
:1096B000082B00200A2B002010F00200B0EF02005F
:1096C00044617461206C656E206973207365742039
:1096D000746F2030782558282564290070B50E490C
:1096E0000E4800F0DFFE044600BF254625B100BF4E
:1096F0002846FDF78BFD00BF00BFF721074800F0AB
:10970000C2FE044600BF254625B100BF2846FDF72E
:109710007DFD00BF00BF70BD71960200302C00209F
:1097200070B50B48FFF7C2FB0A4B0CCB841843F112
:109730000005094903C9201A75EB010004D24FF056
:109740008073E41845F100052046294670BD0000ED
:10975000782B0020882B0020902B00202DE9F04151
:1097600004468846E0B2FFF719F80546287802F06B
:10977000BDFB07466878012800D100E00020784052
:1097800080F001064EB10648D0E900100023594090
:109790005840014301D104F0A9F8BDE8F081000070
:1097A000702B002010B501F045FB08B901F0D6FE82
:1097B00010BD0000024600210CE001EB8100074BC8
:1097C00033F82000904204D101EB810003EB8000CC
:1097D0007047491C0029F0D00020F9E72835002007
:1097E0002DE9FC5F83460E4691461F46DDE90C4598
:1097F000002E01DA704200E0304682464FF0010848
:1098000003E09AFBF9FA08F10108CA45F9DA47457D
:1098100000D9B84634B1002E03DB05F0040004285B
:1098200000D1641E05F0020000B167B105F001002F
:1098300048B944B104E0641E20215846FEF78CFF6D
:109840000CB1A045F7D3002E05DA76422D215846FB
:10985000FEF782FF07E005F00400042803D12B2166
:109860005846FEF779FF05F0020002280DD105F0F9
:10987000010050B94FB944B104E0641E302158468C
:10988000FEF76AFF0CB1A045F7D33B464A46314686
:109890005846CDE9004504F0EBFBBDE8FC9F30B530
:1098A000024600201378C3F38003D3B1137803F08A
:1098B0000303012B02D0022B10D107E01388C3F35E
:1098C00083139B1C0C6823440B6008E00B68022583
:1098D000146805EB945423440B6000E000BF00BF04
:1098E000012030BD2DE9F0410446A08800EB020CB8
:1098F000B4F80480904501DD104600E0A088A8EB94
:109900000005E088C618B4F80680984501DD1846C1
:1099100000E0E088A8EB00074888B4F800804045E4
:1099200004DB4888B4F80280404502DD0020BDE831
:10993000F0818888A84202D38888604501D9002038
:10994000F5E7C888B84202D3C888B04201D90020E0
:10995000EDE70120EBE70146086808B102680A60FC
:10996000704770B500210120FEF76AFC044600BF75
:10997000254625B100BF2846FDF748FC00BF00BFC3
:1099800070BD000010B50848007850B1002405E013
:10999000022C02D02046FEF749FB641C042CF7D3AE
:1099A00001E0FEF787FB10BD1C2B002010B504461C
:1099B0000448007800F0010018B103480078FEF771
:1099C00095FC10BD182B0020142B002010B502F0C0
:1099D0008DF900200149887010BD0000D4350020A9
:1099E000F721018017214180002101714171DF21A0
:1099F00081711B21C171704770B54FF48041002007
:109A000001F028FC044600BF254625B100BF2846CA
:109A1000FDF7FCFB00BF00BF01F0F8F90549064A5D
:109A2000891AC908032242EA014004A101F08EFB11
:109A300070BD000010F00200B0EF02004C6F672014
:109A400073797374656D20696E697469616C697A84
:109A500065642E002DE9FF4100272E4800F047FCE9
:109A60002C48001F00F043FC2B48406803902A4814
:109A700085680398284028490C3101EB800800BF15
:109A800003A94046FFF70BFF30B103982840224955
:109A90000C3101EB800800E000E0F1E700BF00249A
:109AA0000AE00398411C284003911B490C3151F8EE
:109AB00020004DF82400641C022CF2D3009800F022
:109AC000030001280DD0022814D1BDF8067004212E
:109AD000009801EB9050401E039901EB9000039019
:109AE00009E0BDF806700098C0F38310039908449C
:109AF000039000E000BF00BF0648001F00F0F0FB2D
:109B0000064616B1044903984860384604B0BDE8DB
:109B1000F0810000483D00203039002008B556494A
:109B20006A46486955490988FDF7CEFCFFF764FF8E
:109B30005349544A891AC908032242EA014052A1F2
:109B400001F004FB4E494F4A891AC908032242EA30
:109B5000014056A101F0FAFA49494A4A891AC9084E
:109B6000032242EA014057A101F0F0FA03F0CEFED1
:109B70004349444A891AC908032242EA014052A1D2
:109B800001F0E4FAFFF7EDFE3D493E4A891AC908A3
:109B9000032242EA01404DA101F0D8FA03F032FF5E
:109BA0004FF4FA6000F0A0FD3549364A891AC90819
:109BB000032242EA014046A101F0C8FA0DE0304913
:109BC000304A891AC908032242EA014041A101F042
:109BD000BDFA4FF4FA6000F087FD00F057F9002855
:109BE000EDD02749274A891AC908032242EA0140D1
:109BF0003DA101F0ABFA03F0A5F82149214A891AE9
:109C0000C908032242EA014038A101F09FFAFEF799
:109C1000C0F81B491B4A891AC908032242EA0140BD
:109C200033A101F093FAFFF7E5FCFFF757FD03F0CE
:109C300097FBFDF7CFF9FEF7EBFF1149114A891A9F
:109C4000C908032242EA01402AA101F07FFAFDF788
:109C5000F9F906E008496A46486908490988FDF7A4
:109C600033FC009800780028F4D0FDF7FBFB01E0FE
:109C7000FFF798FDFCE70000E42A0020082B0020F5
:109C800010F00200B0EF0200525454204465627597
:109C9000673A20446576696365206973207374614F
:109CA0007274696E672E2E2E000000005465737466
:109CB000696E6720525454204F75747075742E2E3F
:109CC0002E000000380D0A00370D0A00360D0A007C
:109CD000350D0A006D70753932353020696E697442
:109CE000206661696C0D0A00340D0A00330D0A000C
:109CF000320D0A00424C452054656D706C617465EC
:109D0000206578616D706C65207374617274656430
:109D10002E0000002DE9F04105460E4614469846F7
:109D2000A888871C2088801C3844404502D90C2014
:109D3000BDE8F081FE2F01D90C20F9E7781C2188BD
:109D400070542088401C2080FF2021887054208877
:109D5000401C208022889119288804F083F92188EA
:109D600008442080A88800280DDDA86808B90720CD
:109D7000DEE7AA8823889819A968FCF777FB208872
:109D8000A988084420800020D2E72DE9FF4F87B042
:109D9000044691461E46A2462546BAF806009AF8A1
:109DA00005104843001F0690BAF806B0301DB0FBFE
:109DB000FBF00590301DB0FBFBF10BFB1100049094
:109DC000D9F8000081190698814202D90698801BB3
:109DD00001E0D9F800000746C9F8007003E02D68DB
:109DE0000598401E059005980028F8D10390049826
:109DF000ABEB0008B84501D9384600E04046804644
:109E000023E00399089808440290281D0499084407
:109E10000190149828B14246DDE90110FCF726FBB9
:109E200004E04246DDE90101FCF720FB002004903C
:109E30002D68A7EB0807039840440390BB4501D960
:109E4000384600E05846804600BF002FD9D10BB0FD
:109E5000BDE8F08F70B503460C469CB101F026FAC0
:109E6000054600220AE0084800EB820108881E68C7
:109E7000B04202D11A60002070BD521CAA42F2D337
:109E80000520F9E70020F7E70000000010B50124E5
:109E900000F038F9044000F035F908B9002010BD91
:109EA0000721682000F054F800216B2000F050F8E2
:109EB0000721192000F04CF801211A2000F048F881
:109EC0000021382000F044F818211B2000F040F851
:109ED00018211C2000F03CF80221372000F038F84F
:109EE00011210A20FCF776FB2046D8E777B581B030
:109EF0000C4615460020144908700120034601AAAB
:109F000068210090114800F079FC064600BF0E4819
:109F100000780028FBD016B1002004B070BD0020EE
:109F2000094908702B4622466821084800F054FC75
:109F3000064600BF044800780028FBD00EB1002080
:109F4000EBE70120E9E70000112B002010E40200FC
:109F50007CB504460D468DF804408DF80550002070
:109F600009490870022301AA68210090074800F0FF
:109F700045FC064600BF044800780028FBD00EB11F
:109F800000207CBD0120FCE7112B002010E4020022
:109F9000F0B58DB007461B25544800884FF6FF7179
:109FA000884279D005AA911E04A8FCF741FC03AAB7
:109FB000911E02A8FCF769FC01AA911E6846FCF7F5
:109FC0008CFC002412E004A830F81400C0F3072031
:109FD000032101EB440106AA505404A810F8140010
:109FE000042101EB44015054601CC4B2032CEADB91
:109FF000002412E002A830F81400C0F30720092161
:10A0000001EB440106AA505402A810F814000A21DA
:10A0100001EB44015054601CC4B2032CEADB002461
:10A0200010E03DF81400C0F307200F2101EB4401BC
:10A0300006AA50541DF81400102101EB440150549D
:10A04000601CC4B2032CECDB7C208DF81800FE20D1
:10A050008DF8190016208DF81A0025480068000EAA
:10A060008DF82D0022480068000C8DF82E00204845
:10A070000088000A8DF82F001D4800788DF8300008
:10A08000ED208DF831008DF8320019480068401C31
:10A090001749086000240DE025E006A8005D154979
:10A0A000097801EBC10101EB41012144124A5054EE
:10A0B000601CC4B21B2CF0DB0E480078401C0D491C
:10A0C00008700846007808280DD1084803880B4A14
:10A0D00009490B48FDF788FE06460020054908702F
:10A0E000142000F055FD0DB0F0BD0000082B00203D
:10A0F000002B0020062B0020A8300020042B00207D
:10A10000E42A002008B5012269467520FFF7EEFE1B
:10A1100038B19DF80000712801D0002008BD012051
:10A12000FCE70020FAE72DE9F84F05460F461446F4
:10A1300098462878012804D1687810B90720BDE82E
:10A14000F88F2088801C404508D82878012807D13E
:10A150002088801C69780844404501D90C20EEE72E
:10A160002088A8EB0000801E86B200962188891CFA
:10A17000C81969467DDF814600BF484600B1DEE769
:10A1800000BF2878022804D06878BDF80010884203
:10A1900006DBBDF80000B04202DC4FF0090A0BE01C
:10A1A0004FF0080A2878012805D16878B04202DC0F
:10A1B0006878009000E00096BDF80000FE2801D904
:10A1C0000C20BCE7BDF80000401C21887854208892
:10A1D000401C2080208807F800A02088401C208098
:10A1E0002088BDF80010084420800020A7E710B5A3
:10A1F000044609B90E2010BD92FBF3F003FB1020BA
:10A2000008B10920F7E7216000206060A060A2810A
:10A21000E38100BFEFE770B504460D4629462046AE
:10A22000FBF7F8FF18B12A882168881870BD002054
:10A23000FCE770B505460C4620886188884204D149
:10A240002846FCF729F8012070BD0020FCE770B516
:10A2500004460D4629462046FCF701F818B16A88E5
:10A260002168881870BD0020FCE770B505460C46D3
:10A2700020886188884204D12846FBF7E7FF012047
:10A2800070BD0020FCE770B505460C4604F01F03C6
:10A2900001229A40D143620905EB820000F039F8AF
:10A2A000064670BD10B50246480952F8200001F07C
:10A2B0001F040123A340184008B1012010BD002055
:10A2C000FCE770B505460C4604F01F03012202FAB4
:10A2D00003F1620905EB820000F03CF8064670BD10
:10A2E00010B504460021204600F01EF810BD10B540
:10A2F00004460121204600F02DF810BDF8B50446B3
:10A300000D466A4629462046FCF71BF8064600988B
:10A31000F8BDF8B504460D466A4629462046FBF7C7
:10A32000F6FF06460098F8BDF8B504460D466A46A5
:10A3300029462046FBF7EBFF06463046F8BDF8B548
:10A3400004460D466A4629462046FBF7C7FF0646E7
:10A350003046F8BDF8B504460D466A462946204603
:10A36000FBF7C8FF06460098F8BDF8B504460D4651
:10A370006A4629462046FBF7F1FF06460098F8BDDD
:10A38000F8B504460026002000906846FDF716F850
:10A39000206800686168884215D920680068401EFE
:10A3A000226810600178204600F033F80646207AD3
:10A3B00021680978401AC5B220680079A84201DAFC
:10A3C0002068057100BF9DF80000FCF7FDFF3046D6
:10A3D000F8BD0246D068081A138AB0FBF3F0C0B289
:10A3E0007047F8B504460D462E460020009068469A
:10A3F000FCF7E4FF31462046FFF7EBFF21680A68CF
:10A40000511C2368196010709DF80000FCF7DCFFF8
:10A41000F8BD0246138AD06801FB0300704710B5EF
:10A42000014600BF09B90E2010BD00BF087A0B79A4
:10A43000C01AC2B2D1E90030186005E008680368AC
:10A44000581C0C6820601A70101EA2F10103DAB2C9
:10A45000F4D10B68187100BFE6E730B502460B4631
:10A46000D40802F00702012090401D5D284030BD55
:10A4700030B50B46C20800F007009C5C0125854002
:10A480002C439C5430BD024600BF0AB90E207047D1
:10A4900000BF172901DBF72901DD0720F7E711804D
:10A4A0000020F4E770B504460E4600BF0CB90E203C
:10A4B00070BD00BF2661F72020806080DF20207102
:10A4C000002505E0A11D01EBC500FFF789FA6D1C11
:10A4D000002DF7D00020EBE72DE9F047064688462F
:10A4E0004546B488012C01DBBDE8F087308824287C
:10A4F00020D006DC102809D011280CD0232823D125
:10A500001DE03A280CD055281ED10EE031462846D1
:10A5100002F0CEF819E03146284602F09FF914E027
:10A520003146284602F008FA0FE03146284602F08C
:10A530009FF90AE03146284602F01CF905E0314651
:10A54000284602F041F900E000BF00BFA81D00EB63
:10A55000C400007918B3A81D30F834102046A5DFD8
:10A56000074657B90021A81D00EBC4000171012165
:10A57000A81D00EBC400417110E0112F0ED0384629
:10A5800001F02EFB81460749074A891AC9080122B2
:10A5900042EA01404A4605A100F0E2FD00BF00BFCB
:10A5A000A2E70000B0EF0200B0EF020073645F6248
:10A5B0006C655F67617474635F65786368616E671B
:10A5C000655F6D74755F7265717565737428292098
:10A5D00072657475726E65642025732E000000002C
:10A5E000024600BF0AB90E20704700BF00BF1078B6
:10A5F000DE2801D00820F7E700BF51800020F3E7F4
:10A60000024600BF0AB90E20704700BF00BF09B95B
:10A610000E20F9E700BF1078DE2801D10820F3E70B
:10A6200008685060DE2010704FF6FF7050800020E8
:10A63000EAE770B504460E4600BF06B970BD00BF1C
:10A6400000BF04B9FAE700BF354600BF2878DE280E
:10A6500000D0F3E700BFA0886988884202D128466D
:10A6600003F0ABFD2088012806D0022809D011286C
:10A6700011D0512817D109E0211D284602F042FAD5
:10A6800012E0211D284602F03CFA0DE0211D28466B
:10A6900002F0E2F908E0A0886988884202D14FF60A
:10A6A000FF70688000E000BF00BF00BFC6E7014642
:10A6B0004FF08040405808B1012070470020FCE76F
:10A6C00008B500224FF080410A500958009100BFA0
:10A6D00008BD000001490860704700000803004001
:10A6E000012291070A5070472DE9F04104460CB948
:10A6F000BDE8F08100BF4FF47A7505B904E0054F5D
:10A70000AE013046B84700BF601E041EF3D100BF43
:10A71000EEE70000F1E3020010B500240C480078D9
:10A7200008B1852411E0002009498860486008616B
:10A73000C860084801F0C8FA044601F08FF908B96A
:10A7400001F0B8FA012002490870204610BD00004F
:10A75000D43500208D8A020008B50020009068469C
:10A76000FCF72CFE0748C068401E0649C860084632
:10A77000C06808B9FFF72AF99DF80000FCF724FE2D
:10A7800008BD0000D43500202DE9F04704460D46F1
:10A790001646984627780D4840F827600C4840F840
:10A7A0002780687B10B1284603F0D4F84FF00009E9
:10A7B0000EB1084800E0002002463B462946201D15
:10A7C00001F0A0FC81464846BDE8F087502B0020F0
:10A7D000582B00206DDA02002DE9F04104460D46A9
:10A7E00016461F464FF000083B4632462946201DBC
:10A7F00001F016FD80464046BDE8F0812DE9F843A2
:10A8000004460D4616461F46DDF820804FF000092D
:10A810003B4632462946201DCDF8008001F018FD48
:10A8200081464846BDE8F8832DE9F04104460D46CF
:10A830001646002720780C49085C30B1324629467C
:10A84000201D01F097FD07460AE020780649085CC4
:10A8500030B93246294604F10C0001F033FD0746B9
:10A860003846BDE8F08100003C2B00200FB438B51D
:10A870000446059810B938BC5DF814FB0020009020
:10A8800006A800906A462046059900F012F80020BC
:10A89000009000BFEFE770B50446A06800B970BD36
:10A8A000D4E90403A268216898470020A06000BF93
:10A8B000F5E72DE9FC5F82460D4614460DB9BDE86B
:10A8C000FC9F00BF2E786D1C06B9E1E0252E70D1EB
:10A8D00000274FF0010900BF2E782B2E0CD02D2E13
:10A8E00002D0302E0CD103E047F001076D1C0AE0C6
:10A8F00047F002076D1C06E047F004076D1C02E0FC
:10A900004FF0000900BF00BFB9F1000FE4D14FF0D4
:10A91000000800BF2A2E06D12168081D20600868A3
:10A9200080446D1C0DE02E78302E01DB392E00DDC9
:10A9300007E06D1CA6F1300008EB880100EB410830
:10A94000E8E700BF4FF0000B2E782E2E10D16D1CC3
:10A9500000BF2E78302E01DB392E00DD07E06D1CA4
:10A96000A6F130000BEB8B0100EB410BF1E700BFD0
:10A970002E7800BF6C2E01D0682E02D16D1C2E786F
:10A9800000E000E0F6E700BF692E21D008DC252EAC
:10A990006DD0582E39D0632E0CD0642E6CD116E0B9
:10A9A000702E4CD0732E3ED0752E1FD0782E63D1D2
:10A9B0002AE065E02168081D2060D1F8009009F0C8
:10A9C000FF00019050460199FDF7C6FE55E000BF1B
:10A9D0002168081D2060D1F800905B460A22494694
:10A9E0005046CDE90087FEF7FBFE46E02168081DD2
:10A9F0002060D1F800905B460A2249465046CDE9D6
:10AA0000008703F035FB38E000BF2168081D206097
:10AA1000D1F800905B46102249465046CDE90087A8
:10AA200003F026FB29E02168081D206008680190DA
:10AA30003B4642465046019902F078FE1DE02168EF
:10AA4000081D2060D1F8009030215046FDF784FEAB
:10AA500078215046FDF780FE002008210B46102289
:10AA6000CDE900104946504603F002FB05E02521E0
:10AA70005046FDF771FE00E000BF00BF6D1C03E013
:10AA800031465046FDF768FE287800287FF41AAF5B
:10AA900000BF9AF80C0010B15046FFF7FCFE00BF53
:10AAA0000DE7F0B5DDE9054500BF4FF0A0473E4694
:10AAB00041EA420747EA830747EA042747EA054C89
:10AAC00006F5E06747F820C0F0BDF0B5DDE90545C3
:10AAD00000BF4FF0A0473E4641EA420747EA8307DE
:10AAE00047EA042747EA054C06F5E06747F820C027
:10AAF000F0BDF0B5DDE9054500BF4FF0A0473E468B
:10AB000041EA420747EA830747EA042747EA054C38
:10AB100006F5E06747F820C0F0BD10B50A4600BF53
:10AB20004FF0A043194601F5E06353F8203023F4B9
:10AB3000403401F5E06343F8204053F8203043EA05
:10AB4000024401F5E06343F8204010BD00BF4FF020
:10AB5000A0410A46012303FA00F1C2F80C1500BF18
:10AB60007047014600BF4FF0A040024600BFD2F838
:10AB70001005C84000F00100704700BF4FF0A04131
:10AB80000A46012303FA00F1C2F8081500BF704716
:10AB900000BF4FF0A0431946D1F80425012383409C
:10ABA0009343C1F80835012383401340C1F80C35A5
:10ABB000704710B561B900BF00BF4FF0A042134607
:10ABC000012404FA00F2C3F80C2500BF00BF0CE01A
:10ABD00000BF00BF4FF0A0421346012404FA00F268
:10ABE000C3F8082500BF00BF00BF10BD38B50B4635
:10ABF000074C24680094014606E05DF82140D4F833
:10AC000010551560121D491CC4188C42F5D838BD6A
:10AC10008CE402000146014808447047006000408F
:10AC200038B504462046FFF7F5FF002101602046B5
:10AC3000FFF7F0FF0068009000BF38BD10B5044674
:10AC40002046FFF7E7FF0068012800D110BD002073
:10AC5000FCE7000001490860704700000463004001
:10AC600070B504460E46FCF711FC0546681C08B991
:10AC7000284670BDE8B2E168087100BF0C48D0F802
:10AC8000100430B90A48C0F810440020E168086098
:10AC90000BE00748D0F81004C0680068E16808605D
:10ACA0000348D0F81004C06804602846E1E70000BB
:10ACB00030390020704710B5FBF7B8FE10BD704763
:10ACC00038B504460D4604484023044A29460090FE
:10ACD000204600F005F838BD45D202009837002024
:10ACE0002DE9F04F93B082460E4617469846DDF8A0
:10ACF0007090304600F0D3FB18210DA8FBF7CFFB76
:10AD00000D97CDF83880CDF8489000252B460822C5
:10AD100007A9304600F0E0FB082509980A90BDF825
:10AD20002000ADF82C00BDF82200ADF82E00002068
:10AD30008DF83100079800F0030001281BD1079817
:10AD40004FEA902B0798C0F3C2008DF830000798A7
:10AD5000C0F38314A2002B4601A9304600F0BCFBCF
:10AD600005EB84050DA80AAB224601A900905846C0
:10AD700000F0D4FA27E0079800F00300022822D15F
:10AD800007984FEA905B0798C0F3C2008DF8300037
:10AD900000BFBBF1080F01D2584600E0082004466E
:10ADA0002B46224605A9304600F096FB2544ABEB26
:10ADB000040B0DAB0AAA214605A800F0EDF9BBF182
:10ADC000000FE6D100BF304600F077FB13B0BDE8BE
:10ADD000F08F000010B502460B4C04EBC2030129B2
:10ADE00006D0022906D0032906D0042908D105E09F
:10ADF000022007E0042005E0187903E0587901E01B
:10AE0000002000BF00BF10BDB0EF020010B54FF032
:10AE1000FF34FFF750FF04210548FFF721FF0446E8
:10AE200000BF01200249C968487100BF10BD000081
:10AE3000A0EF02002DE9F04F8BB0FDF7A3FC18B195
:10AE400000200BB0BDE8F08F0020B749C1F818040E
:10AE500000BF00BF00BFBFF34F8F00BF00BF00BFE8
:10AE6000084640680A90084684680A9820400C31D9
:10AE700001EB800A002500260020069000BF0AA9E9
:10AE80005046FEF70CFDA8B1A748D0F8180488B9C1
:10AE9000A54800680A99884205D8A3480068A249D5
:10AEA00048600020CDE70A9820409F490C3101EB13
:10AEB000800A00E000E0E2E700BF00270BE00A980C
:10AEC000411C20400A9198490C3151F8200007A9F3
:10AED00041F827007F1C022FF1D3079800F00300F0
:10AEE00002287CD10798800D059050210798B1EB7E
:10AEF000905F02DD0798800D00E0502081460798A2
:10AF000069F39F50079009F1080004900798C0F377
:10AF1000C20006908548049900F064FA0546002DA9
:10AF20005BD0284600F0BBFA3346082207A9284622
:10AF300000F0E3FA08360A982040611C081A4FEA2C
:10AF40008008C14535D9B8F1000F06D00A982040D5
:10AF500075490C3101EB800001E073480C3003901F
:10AF6000B8F1000F01D0404600E0484600F0FF0B6A
:10AF7000B8F1000F02D06C480C3000E000200290C5
:10AF8000B8F1000F02D0A9EB080000E00020C0B229
:10AF9000019033465A462846039900F0AEFA5E44C3
:10AFA000029828B133462846DDE9012100F0A5FAD0
:10AFB0000CE00A9820405C490C3101EB800B3346D1
:10AFC0004A465946284600F098FA00BF0598C01C2A
:10AFD0000A9901EB90000A9000BF44E0FFE7079850
:10AFE00000F0030001283ED10798C0F38310062823
:10AFF00003DA0798C0F3831000E00620079960F396
:10B00000891107910798C0F3831000F1020807988F
:10B01000C0F3C20006904FEA8801444800F0E2F90C
:10B020000546FDB1284600F03AFA3346082207A942
:10B03000284600F062FA083600270EE00A98421C03
:10B0400020400A92384A0C3202EB80013346042237
:10B05000284600F052FA361D7F1C0798C0F3831073
:10B06000B842EBD800BFE5B32F48D0F81084D0F831
:10B07000180418B1284600F020FA31E019E04FF02A
:10B08000000900BFD8F80C004079012800D18146A2
:10B09000B9F1000F08D000BFD8F8000029460268B7
:10B0A0004046904700BF00BFD8F80C00D0F80080A1
:10B0B00000BFB8F1000FE2D1284600F0FEF90020F1
:10B0C000059005A8FCF77AF91748D0F8180410B9CC
:10B0D00015490A9848609DF81400FCF775F900BFFF
:10B0E0001DE0FFE71048D0F810840AE0C146D9F807
:10B0F000000081684846884700BFD8F80C00D0F8A7
:10B100000080B8F1000FF1D109490A4A891AC9082B
:10B11000022242EA014008A100F018F800BFFDF742
:10B1200031FB80F001008CE63039002030F0020065
:10B1300010F00200B0EF02004261636B656E647351
:10B1400020666C75736865640000000070B5044685
:10B150000D4600231A462946204602F0AFFA70BD7C
:10B16000F8B505460E461446009401236A4631465A
:10B17000284602F0A3FAF8BD2DE9FC4106460F4629
:10B1800014461D460094019502236A46394630460E
:10B1900002F094FABDE8FC812DE9F05F07460E4607
:10B1A00090461D46082E01D9BDE8F09F95F80C90F9
:10B1B000002028732946404601F0D2FD00240CE00F
:10B1C000B44205D23A5D1DA12846FFF74FFB03E0CC
:10B1D0001CA12846FFF74AFB641C082CF0D31AA1D7
:10B1E0002846FFF743FB00241DE0B44216D217F8AF
:10B1F00004A0BAF17E0F09DCFBF734F9006810F8FF
:10B200000A0000F03E0008B1504600E02E208346C0
:10B210005A460EA12846FFF729FB03E00CA1284659
:10B22000FFF724FB641C082CDFD30122294640468B
:10B2300001F064FD85F80C9000BFB5E720253032A1
:10B2400078000000202020007C0000002563000022
:10B25000200000002DE9F04106460F4600BFFF2008
:10B260000D498860002008604860C1F81804C1F8E2
:10B27000140481F82004094800F019F9044614B1B7
:10B280002046BDE8F081064800F0A4F905480649CB
:10B29000401AC5080020F4E73039002030F00200E1
:10B2A000D8E6020030F00200B0EF02000248034985
:10B2B000401AC0087047000030F00200B0EF0200F2
:10B2C00013B50C4621466846FEF7C4FD28B904486C
:10B2D000009A00EBC20108681CBD0020FCE70000DA
:10B2E000B0EF020070B50C48D0F8104401200A49B4
:10B2F00081F820040CE000BF0120E168487100BF24
:10B300002546286841682846884700BFE0680468E9
:10B31000002CF0D170BD0000303900202DE9FF472E
:10B3200007460C46164698460C9D95F80C90002052
:10B3300028732946404601F013FD072E47D2DFE867
:10B3400006F004090F161F2A370039462846FFF772
:10B350008DFA3DE0394628462268FFF787FA37E044
:10B3600039462846D4E90023FFF780FA30E0A06888
:10B37000009039462846D4E90023FFF777FA27E002
:10B38000D4E90201CDE9000139462846D4E9002379
:10B39000FFF76CFA1CE0D4E902122069CDE9001233
:10B3A000029039462846D4E90023FFF75FFA0FE000
:10B3B000D4E90223D4E90410CDE90023CDE9021039
:10B3C00039462846D4E90023FFF750FA00E000BFD1
:10B3D00000BF00222946404601F090FC85F80C9001
:10B3E000BDE8FF872DE9F84F07468A46388AA0F165
:10B3F00004080AF104004044401EB0FBF8F0C0B25B
:10B4000000903846FEF7BCFF044614B90020BDE8A2
:10B41000F88F0020207101216171A4F80680254673
:10B420000098A0F1010B2C462F604FF0000912E0AC
:10B430003846FEF7A5FF064636B16079401C6071BC
:10B440002E603760354604E0204600F008F8002002
:10B45000DDE709F10109D945EAD32046D7E72DE90F
:10B46000F05F0446274697F805802646A8F1010BB1
:10B47000002501E036686D1C5D45FBD3D6F800A0C1
:10B480002646002507E0D6F8009031465046FEF7E4
:10B49000A8FF4E466D1C4545F5D3BDE8F09F70B53D
:10B4A000044625460121281DFEF728FF70BD10B572
:10B4B00004462046FEF7B3FF10BDF8B50446264605
:10B4C0000121301DFEF751FF00906D46287810B91C
:10B4D0002046FFF7C4FFF8BD2DE9FC4105460E46A6
:10B4E00014461F46019401203B4601AA31460090B4
:10B4F0002846FEF74AFCBDE8FC812DE9FC410546E3
:10B500000E4614461F46019400203B4601AA3146D0
:10B5100000902846FEF739FCBDE8FC8110B50020FC
:10B520000A49087000BF0A49086000BF00BF00BF99
:10B5300000BFBFF35F8F00BF00BF00BF00BF054962
:10B54000054800F0BEFA002010BD0000CC2B002002
:10B55000C82B0020B0E602008C37002038B500BFB1
:10B56000002000906846FBF729FF00BFF1EE100AAB
:10B57000044624F09F00E1EE100A00BF00BF00BFA8
:10B5800000BF00BFBFF35F8F00BF00BF00BF26201A
:10B5900000F01F0201219140094A430942F823109B
:10B5A00000BF9DF80000FBF70FFF00BF00F056FA48
:10B5B00010B141DF044602E020BF40BF20BF38BDCC
:10B5C00080E200E010B5044600BF2046FBF71EFEF7
:10B5D00000BF10BD0021826891608268116182689D
:10B5E00051618268D16082685160826811607047E1
:10B5F00000F5A86343F8212070470146D1F80405FF
:10B60000704708B5002242504258009200BF08BD62
:10B61000C0F848137047C0F844137047C0F80813C7
:10B620007047C0F804137047012242507047000071
:10B63000014609B90E2070470248006808600020E2
:10B64000F9E7000068E70200FEB506460C46204612
:10B65000FFF7EEFF05460DB12846FEBD0020009025
:10B66000019002908DF8006001208DF80200062103
:10B67000ADF8041069462020226869DF054675B1DF
:10B68000284600F0ADFA07464F49504A891AC908C2
:10B69000012242EA01403A464D49FFF761FD002090
:10B6A00000900190029001208DF8010000208DF89B
:10B6B00002008DF8030069464020226869DF0546D4
:10B6C00075B1284600F08CFA07463F493F4A891A6F
:10B6D000C908012242EA01403A463E49FFF740FDCF
:10B6E00000200090019002908DF80060F720ADF8E6
:10B6F000020069462320226869DF054675B12846A5
:10B7000000F06EFA07463049304A891AC90801220A
:10B7100042EA01403A463049FFF722FD00200090FE
:10B720000190029001208DF800006946226869DFCF
:10B73000054675B1284600F053FA07462249234AC8
:10B74000891AC908012242EA01403A462349FFF713
:10B7500007FD00200090019002904FF4B06000902F
:10B760006946A120226869DF054675B1284600F0C8
:10B7700037FA07461449154A891AC908012242EACC
:10B7800001403A461649FFF7EBFC0020009001907B
:10B79000029001208DF800006946A020226869DF30
:10B7A000054675B1284600F01BFA07460649074AC8
:10B7B000891AC908012242EA01403A460949FFF7BD
:10B7C000CFFC002049E7000020F00200B0EF0200AB
:10B7D000FCED020044EE020090EE02005CED02007F
:10B7E000A8ED020008ED02002DE9F04104462568AD
:10B7F000204660DF06462068A84225D91E491F4A18
:10B80000891AC908022242EA01401DA1FFF79EFCE5
:10B8100019491A4A891AC908022242EA01402A46ED
:10B8200023A12368FFF7A8FC01F0F8FA2168471A62
:10B830001149124A891AC908022242EA01403A46CD
:10B8400028A1FFF78DFC00E000BF1EB901203049A0
:10B8500008700EE0304600F0C3F907460649074A73
:10B86000891AC908012242EA01403A4629A1FFF794
:10B8700077FC3046BDE8F08120F00200B0EF020016
:10B88000496E73756666696369656E742052414DD1
:10B8900020616C6C6F636174656420666F722074E4
:10B8A000686520536F66744465766963652E000091
:10B8B0004368616E6765207468652052414D20734E
:10B8C00074617274206C6F636174696F6E2066724C
:10B8D0006F6D203078257820746F20307825782E91
:10B8E000000000004D6178696D756D2052414D205A
:10B8F00073697A6520666F72206170706C6963612C
:10B9000074696F6E20697320307825782E000000EE
:10B910002B2C002073645F626C655F656E61626CE6
:10B920006528292072657475726E65642025732EF2
:10B93000000000002DE9F041ADF5027D8046184879
:10B94000007818B90DF5027DBDE8F0811DE04FF4D7
:10B95000FA70049004A905A861DF044604B115E05B
:10B9600005AD104901A800F0ACF809E000BF03984C
:10B970000646376828467168B84701A800F0C2F843
:10B9800000BF03980028F1D100BFE0E700BF052CFD
:10B9900004D000BF2046FBF739FC00BF00BFD1E751
:10B9A0002B2C00205CE702001CB51B48007808B176
:10B9B00008201CBD012019490870002001F0ECFB93
:10B9C000112801D10020F4E7002001F003FC144805
:10B9D00000680190002000906846FBF7EFFC1149D9
:10B9E00001A810DF04460CB9012000E000200A493C
:10B9F00008709DF80000FBF7E7FC0CB12046D8E783
:10BA00000020064908700849087001F0CBFD0120AC
:10BA100001F0E0FB0020CCE7282C00202A2C00209D
:10BA200038E7020051710200292C00203EB50A4976
:10BA3000684600F046F809E0684600F03FF8044622
:10BA400025686068A847684600F05CF8684600F022
:10BA500035F80028F0D13EBD2CE7020001480078FF
:10BA600070470000282C00202DE9FF41074618E010
:10BA700003A84BDF044604B114E00F49684600F008
:10BA800020F809E000BF029805462E68696803980F
:10BA9000B047684600F036F800BF02980028F1D1A0
:10BAA00000BFE5E700BF052C04D000BF2046FBF730
:10BAB000ADFB00BFBDE8FF817CE70200014688685E
:10BAC000704770B504460D462560286860602046C2
:10BAD00000F001F870BD14E0D0E9002152689142F5
